:020000040800F2
:100000000050002021020008270200082B020008EF
:1000100043020008470200085F02000800000000D9
:10002000000000000000000000000000770200084F
:100030007B020008000000007F0200088302000825
:100040009102000891020008910200089102000844
:100050009102000891020008910200089102000834
:100060009102000891020008910200089102000824
:100070009102000891020008910200089102000814
:100080009102000891020008910200089102000804
:1000900091020008910200089102000891020008F4
:1000A00091020008910200089102000891020008E4
:1000B00091020008910200089102000891020008D4
:1000C00091020008910200089102000891020008C4
:1000D00091020008910200089102000891020008B4
:1000E000910200089102000891020008000000003F
:1000F0000000000000000000000000000000000000
:1001000000000000000000005FF808F100B583B0B7
:1001100000F0DEF8304B314A1360314A1360314B46
:10012000314A32498B4204D21168196004330432D7
:10013000F7E72A4B1A682E4B9A4200D0FEE7284B6D
:100140001A682C4B9A42F9D1234B2B4A13602B4A45
:1001500013602B4B02E000221A600433294A9342B9
:10016000F9D3254B1B6813B9244B1B6803B1FEE779
:1001700000F0BAF8694601A800F0A2F8224C234B1F
:10018000E41AA4100025AC4214DC214C214BE41AE3
:10019000A4100025AC4213DC0099019800F014FC77
:1001A00005461D4C1D4BE41AA410002C0EDC2846FD
:1001B00000F084F8154B53F8253098470135E2E7F5
:1001C000144B53F8253098470135E3E7013C134BB6
:1001D00053F824309847E8E7BABADECA0000002096
:1001E0002400002000000020A40B000828000020AC
:1001F0007856341232547698280000206C01002082
:100200002800002070010020BC020008BC02000889
:10021000BC020008BC020008BC020008BC020008C6
:1002200008B5FFF773FF00BEFEE71EF0040F0CBF1A
:10023000EFF30880EFF309807146124A104700BEC1
:10024000FEE700BEFEE71EF0040F0CBFEFF30880D0
:10025000EFF3098071460C4A104700BEFEE71EF01E
:10026000040F0CBFEFF30880EFF309807146074AD3
:10027000104700BEFEE700BEFEE700BEFEE700BE80
:10028000FEE770473F0200085B02000873020008A7
:0402900000BEFEE7C7
:10029400A40B00080000002028000020A40B000884
:1002A4000000000000000000280000207001002071
:0802B400000000000000000042
:1002BC00FEE7000001230360014B0B60704700BF99
:1002CC000400002008B500F073F8024A024B9A6053
:1002DC0008BD00BF0000000800ED00E008B500F00C
:1002EC008FF808BD82B00023019300932C4A136849
:1002FC0043F4803313602A4B1B6803F400330093E0
:10030C00019B01330193009B1BB9019BB3F5A06FBB
:10031C00F1D1234B1B6813F4003F06D0012300934B
:10032C00009B012B04D002B0704700230093F7E729
:10033C001C4B1A6842F010021A601A6822F0030271
:10034C001A601A6842F002021A60A3F580535A68C8
:10035C005A605A685A605A6842F480625A605A6805
:10036C0022F47C125A605A6842F4E8125A601A68F5
:10037C0042F080721A600A4B1B6813F0007FFAD0AF
:10038C00074B5A6822F003025A605A6842F0020284
:10039C005A60034B5B6803F00C03082BF9D1C2E7DE
:1003AC00001002400020024008B5FFF79BFF08BD7B
:1003BC0008B5104B1A6842F001021A6059680E4ACF
:1003CC000A405A601A6822F0847222F480321A6051
:1003DC001A6822F480221A605A6822F4FE025A60CB
:1003EC004FF41F029A60FFF7DFFF044B4FF00062DF
:1003FC009A6008BD001002400000FFF800ED00E01C
:10040C001F4B5B6803F00C03042B15D0082B17D083
:10041C001BB11C4B1C4A1A6002E01A4B1A4A1A6098
:10042C00174B5B68C3F30313184AD35CDAB2154954
:10043C000B68D3400B607047124B134A1A60EFE7FE
:10044C000F4A53685268C3F38343023312F4803F5C
:10045C000AD00B4A526812F4003F0BD00C4A02FB34
:10046C0003F3084A1360DBE7094A02FB03F3054A6E
:10047C001360D5E7044A02FB03F3024A1360CFE78B
:10048C00001002401C00002000127A000C0000201A
:10049C0000093D00002304E0034A0021D15401333C
:1004AC00DBB2632BF8D970470801002038B505463C
:1004BC000020044606E0284600F05AFA0D4B185569
:1004CC000134E4B2FF28F6D1002301E00133DBB2A2
:1004DC001946A21E93420ADA064AD25C4F2AF5D17B
:1004EC000131044A525C4B2AF0D1012000E000207B
:1004FC0038BD00BF0801002008B5FFF7CBFF002076
:10050C0005E00A4800F022FA6420FFF7CFFF00282C
:10051C00F7D0002006E0064800F018FA4FF4967069
:10052C00FFF7C4FF0028F6D008BD00BF0C0B000875
:10053C00140B000838B505460C46002011E00A489B
:10054C0000F004FA284600F001FA084800F0FEF921
:10055C00204600F0FBF9064800F0F8F90548FFF7D3
:10056C00A5FF0028EBD038BDF80A0008EC0A0008FB
:10057C00080B0008E0C8100010B5044600200BE082
:10058C00074800F0E3F9204600F0E0F9054800F0D8
:10059C00DDF90548FFF78AFF0028F1D010BD00BF38
:1005AC00DC0A0008F00A0008E093040038B50546A0
:1005BC000C4600200CE00F4800F0C8F9284600F06B
:1005CC00C5F90D4800F0C2F941F28830FFF76EFF13
:1005DC000028F0D0002008E0204600F0B7F90648CB
:1005EC0000F0B4F90548FFF761FF0028F4D0044887
:1005FC0038BD00BFD00A0008F40A0008A0BB0D00EB
:10060C0008010020154BDB6813F0010FFAD1134BD6
:10061C001B6913F0800F05D0104B114A5A6002F180
:10062C0088325A600D4B1A6942F002021A6180023C
:10063C0000F1006018601A6942F040021A61074B21
:10064C00DB6813F0010FFAD1044BDA6842F0200298
:10065C00DA601A6922F002021A6170470020024027
:10066C002301674510B5042404E02046FFF7CAFFB8
:10067C000134E4B23E2CF8D910BD000030B482B085
:10068C001A4BDB6813F0010FFAD1184B1B6913F0EE
:10069C00800F05D0154B164C5C6004F188345C60FF
:1006AC0000241DE0114D2B6943F001032B6131F83F
:1006BC001430ADF80630BDF806309BB220F8023B82
:1006CC000A4BDB6813F0010FFAD1084BDD6845F0DB
:1006DC002005DD601D6925F001051D610134E4B2C2
:1006EC009442DFD302B030BC704700BF0020024000
:1006FC002301674570B4012825D018B1022844D0D5
:10070C0070BC7047072910D90F29F9D82F4B58689E
:10071C0008398E000F21B14020EA01015960586858
:10072C0002FA06F101435960EAE7284B18688D007C
:10073C000F21A94020EA01011960186802FA05F19D
:10074C0001431960DCE7072911D90F29D8D82048B3
:10075C004468A1F108039B000F21994024EA010190
:10076C004160446802FA03F121434160C8E7184B29
:10077C0018688C000F21A14020EA0101196018684B
:10078C0002FA04F101431960BAE7072910D90F29BD
:10079C00B6D8104B5868083989000F248C4020EAD1
:1007AC0004005860586802FA01F101435960A7E748
:1007BC00084B1C6888000F21814024EA0101196054
:1007CC001C6802FA00F12143196099E70008014006
:1007DC00000C0140001001400246A0F13003D8B2D9
:1007EC00092802D9A2F13700C0B270472DE9F84FA1
:1007FC0006464078FFF7F0FF0746B078FFF7ECFFAE
:10080C0040EA0717FFB2F078FFF7E6FF04463079AD
:10081C00FFF7E2FF05467079FFF7DEFF8046B079FF
:10082C00FFF7DAFF1F4A538840EA034040EA0818F2
:10083C0048EA052848EA0438C2F80080002527E079
:10084C004FEA850B0BF10903F05CFFF7C5FF8146FE
:10085C000BF10A03F05CFFF7BFFF82460BF10B03B1
:10086C00F05CFFF7B9FF04460BF10C0B16F80B000C
:10087C00FFF7B2FF240344EA002000B240EA0A006A
:10088C0000B240EA0910084B23F815000135EDB20F
:10089C007A08AA42D4D804494046FFF7EFFEBDE8D7
:1008AC00F88F00BF200000203000002008B5037A2C
:1008BC00302B00D008BDFFF799FFFBE7034B8122DB
:1008CC001A6000225A605A685A6070470010024041
:1008DC001F291CD801280BD010B1022810D070474A
:1008EC000B484369012202FA01F119434161704737
:1008FC000748C369012202FA01F11943C16170472B
:10090C0003488369012202FA01F11943816170479E
:10091C00001002400C4B45229A60DA6822F4805297
:10092C00DA60DA6822F48062DA60DA6842F008028F
:10093C00DA60DA6842F00402DA60DA6842F40052F3
:10094C00DA6000221A60704700380140002208E08B
:10095C0006494B60054B1B6813F0400FFAD001326F
:10096C00D2B2835C002BF3D1704700BF003801403A
:10097C000023084A126812F0200F04D1013383427D
:10098C00F7D1FF2000E0002010B9024B5868C0B22C
:10099C00704700BF0038014008B5044B044A1A6088
:1009AC00044B1B68044A1360984708BD08ED00E02F
:1009BC000010000804100008F800002008B5FFF72C
:1009CC007DFF02210846FFF783FF0E210220FFF76F
:1009DC007FFF04210020FFF77BFF09221146002036
:1009EC00FFF788FE04220A210020FFF783FEFFF7A1
:1009FC0091FFFFF781FD29492948FFF79BFD29E06D
:100A0C000133DBB2632B13D8C25C2B2AF8D1C2188A
:100A1C005278492AF4D1C2189278502AF0D1C218CF
:100A2C00D278442AECD1DA1D02441E490A60E7E769
:100A3C001C4B1B681A78642A17D01B4B1B7833B3DA
:100A4C00184B1868FFF732FF18491948FFF7AEFD2D
:100A5C00184B18601848FFF78FFD18491848FFF716
:100A6C00A5FD144B18600023CCE75A786F2AE4D10B
:100A7C009A786E2AE1D1DB78652BDED10B490C48D4
:100A8C00FFF794FD0B4B1860FFF786FFE2E7FFF7CB
:100A9C00E9FD054B01221A70D2E700BF240B0008B8
:100AAC00300B000804010020FC000020700B000833
:100ABC00A00B000800010020380B0008480B0008B0
:100ACC006C0B000841542B43495053454E443D0098
:100ADC0041542B43495053544152543D225443509A
:100AEC00222C2200222C38300D0A000041542B43BA
:100AFC00574A41505F4355523D220000220D0A00D7
:100B0C00415445300D0A000041542B43574D4F447E
:100B1C00453D310D0A000000333031313139393760
:100B2C0000000000376F4461000000003136322EA7
:100B3C003235332E3135352E32323600474554207E
:100B4C00687474703A2F2F6F74612E7565756F2EE3
:100B5C00636F6D2F6275666665722E747874000013
:100B6C0033360000504F535420687474703A2F2F52
:100B7C006F74612E7565756F2E636F6D2F73637255
:100B8C006970742E7068703F726573706F6E7365E8
:080B9C003D6F6B0034390000CD
:100BA400785634122C0000200000000000000000E1
:100BB40000000000010203040607080900A24A0419
:080BC40000000008325476988D
:040000050800010DE1
:00000001FF
